{
  "contractName": "ArticleContract",
  "abi": [
    {
      "anonymous": false,
      "inputs": [
        {
          "indexed": true,
          "internalType": "uint256",
          "name": "articleId",
          "type": "uint256"
        },
        {
          "indexed": false,
          "internalType": "string",
          "name": "filecoinCID",
          "type": "string"
        },
        {
          "indexed": true,
          "internalType": "address",
          "name": "journalistId",
          "type": "address"
        }
      ],
      "name": "ArticleCreated",
      "type": "event"
    },
    {
      "anonymous": false,
      "inputs": [
        {
          "indexed": true,
          "internalType": "uint256",
          "name": "articleId",
          "type": "uint256"
        },
        {
          "indexed": false,
          "internalType": "int256",
          "name": "totalReviewScore",
          "type": "int256"
        },
        {
          "indexed": false,
          "internalType": "string",
          "name": "comments",
          "type": "string"
        }
      ],
      "name": "ArticleDenied",
      "type": "event"
    },
    {
      "anonymous": false,
      "inputs": [
        {
          "indexed": true,
          "internalType": "uint256",
          "name": "articleId",
          "type": "uint256"
        },
        {
          "indexed": false,
          "internalType": "int256",
          "name": "totalReviewScore",
          "type": "int256"
        }
      ],
      "name": "ArticleDeployed",
      "type": "event"
    },
    {
      "anonymous": false,
      "inputs": [
        {
          "indexed": true,
          "internalType": "address",
          "name": "journalist",
          "type": "address"
        }
      ],
      "name": "JournalistAdded",
      "type": "event"
    },
    {
      "anonymous": false,
      "inputs": [
        {
          "indexed": true,
          "internalType": "address",
          "name": "journalist",
          "type": "address"
        }
      ],
      "name": "JournalistDeactivated",
      "type": "event"
    },
    {
      "anonymous": false,
      "inputs": [
        {
          "indexed": true,
          "internalType": "uint256",
          "name": "articleId",
          "type": "uint256"
        },
        {
          "indexed": true,
          "internalType": "address",
          "name": "reviewer",
          "type": "address"
        },
        {
          "indexed": false,
          "internalType": "bool",
          "name": "review",
          "type": "bool"
        }
      ],
      "name": "ReviewCasted",
      "type": "event"
    },
    {
      "anonymous": false,
      "inputs": [
        {
          "indexed": true,
          "internalType": "uint256",
          "name": "articleId",
          "type": "uint256"
        },
        {
          "indexed": true,
          "internalType": "address",
          "name": "voter",
          "type": "address"
        },
        {
          "indexed": false,
          "internalType": "bool",
          "name": "vote",
          "type": "bool"
        }
      ],
      "name": "VoteCasted",
      "type": "event"
    },
    {
      "inputs": [
        {
          "internalType": "uint256",
          "name": "",
          "type": "uint256"
        }
      ],
      "name": "admins",
      "outputs": [
        {
          "internalType": "address",
          "name": "",
          "type": "address"
        }
      ],
      "stateMutability": "view",
      "type": "function",
      "constant": true
    },
    {
      "inputs": [
        {
          "internalType": "uint256",
          "name": "",
          "type": "uint256"
        }
      ],
      "name": "allArticles",
      "outputs": [
        {
          "internalType": "uint256",
          "name": "id",
          "type": "uint256"
        },
        {
          "internalType": "string",
          "name": "filecoinCID",
          "type": "string"
        },
        {
          "internalType": "bool",
          "name": "isPublished",
          "type": "bool"
        },
        {
          "internalType": "bool",
          "name": "isEvaluated",
          "type": "bool"
        }
      ],
      "stateMutability": "view",
      "type": "function",
      "constant": true
    },
    {
      "inputs": [],
      "name": "articleCount",
      "outputs": [
        {
          "internalType": "uint256",
          "name": "",
          "type": "uint256"
        }
      ],
      "stateMutability": "view",
      "type": "function",
      "constant": true
    },
    {
      "inputs": [
        {
          "internalType": "uint256",
          "name": "",
          "type": "uint256"
        }
      ],
      "name": "articles",
      "outputs": [
        {
          "internalType": "uint256",
          "name": "id",
          "type": "uint256"
        },
        {
          "internalType": "string",
          "name": "filecoinCID",
          "type": "string"
        },
        {
          "internalType": "address",
          "name": "journalistId",
          "type": "address"
        },
        {
          "internalType": "uint256",
          "name": "timeStamp",
          "type": "uint256"
        },
        {
          "internalType": "int256",
          "name": "upvotes",
          "type": "int256"
        },
        {
          "internalType": "int256",
          "name": "downvotes",
          "type": "int256"
        },
        {
          "internalType": "int256",
          "name": "reviewScore",
          "type": "int256"
        },
        {
          "internalType": "uint256",
          "name": "reviewNumber",
          "type": "uint256"
        },
        {
          "internalType": "bool",
          "name": "isPublished",
          "type": "bool"
        },
        {
          "internalType": "bool",
          "name": "isEvaluated",
          "type": "bool"
        }
      ],
      "stateMutability": "view",
      "type": "function",
      "constant": true
    },
    {
      "inputs": [
        {
          "internalType": "address",
          "name": "",
          "type": "address"
        }
      ],
      "name": "credibilityScores",
      "outputs": [
        {
          "internalType": "uint256",
          "name": "",
          "type": "uint256"
        }
      ],
      "stateMutability": "view",
      "type": "function",
      "constant": true
    },
    {
      "inputs": [
        {
          "internalType": "address",
          "name": "",
          "type": "address"
        }
      ],
      "name": "journalistGroup",
      "outputs": [
        {
          "internalType": "bool",
          "name": "",
          "type": "bool"
        }
      ],
      "stateMutability": "view",
      "type": "function",
      "constant": true
    },
    {
      "inputs": [],
      "name": "targetScore",
      "outputs": [
        {
          "internalType": "uint256",
          "name": "",
          "type": "uint256"
        }
      ],
      "stateMutability": "view",
      "type": "function",
      "constant": true
    },
    {
      "inputs": [
        {
          "internalType": "address",
          "name": "user",
          "type": "address"
        }
      ],
      "name": "isAdmin",
      "outputs": [
        {
          "internalType": "bool",
          "name": "",
          "type": "bool"
        }
      ],
      "stateMutability": "view",
      "type": "function",
      "constant": true
    },
    {
      "inputs": [
        {
          "internalType": "address",
          "name": "journalist",
          "type": "address"
        }
      ],
      "name": "addJournalist",
      "outputs": [],
      "stateMutability": "nonpayable",
      "type": "function"
    },
    {
      "inputs": [
        {
          "internalType": "address",
          "name": "journalist",
          "type": "address"
        }
      ],
      "name": "deactivateJournalist",
      "outputs": [],
      "stateMutability": "nonpayable",
      "type": "function"
    },
    {
      "inputs": [
        {
          "internalType": "string",
          "name": "_filecoinCID",
          "type": "string"
        }
      ],
      "name": "createArticle",
      "outputs": [],
      "stateMutability": "nonpayable",
      "type": "function"
    },
    {
      "inputs": [
        {
          "internalType": "uint256",
          "name": "articleId",
          "type": "uint256"
        },
        {
          "internalType": "bool",
          "name": "approve",
          "type": "bool"
        },
        {
          "internalType": "string",
          "name": "comment",
          "type": "string"
        }
      ],
      "name": "evaluateArticle",
      "outputs": [],
      "stateMutability": "nonpayable",
      "type": "function"
    },
    {
      "inputs": [
        {
          "internalType": "uint256",
          "name": "articleId",
          "type": "uint256"
        },
        {
          "internalType": "bool",
          "name": "vote",
          "type": "bool"
        }
      ],
      "name": "voteArticle",
      "outputs": [],
      "stateMutability": "nonpayable",
      "type": "function"
    },
    {
      "inputs": [
        {
          "internalType": "uint256",
          "name": "articleId",
          "type": "uint256"
        }
      ],
      "name": "getArticle",
      "outputs": [
        {
          "internalType": "uint256",
          "name": "id",
          "type": "uint256"
        },
        {
          "internalType": "string",
          "name": "filecoinCID",
          "type": "string"
        },
        {
          "internalType": "address",
          "name": "journalistId",
          "type": "address"
        },
        {
          "internalType": "uint256",
          "name": "timeStamp",
          "type": "uint256"
        },
        {
          "internalType": "int256",
          "name": "reviewScore",
          "type": "int256"
        },
        {
          "internalType": "uint256",
          "name": "reviewNumber",
          "type": "uint256"
        },
        {
          "internalType": "int256",
          "name": "upvotes",
          "type": "int256"
        },
        {
          "internalType": "int256",
          "name": "downvotes",
          "type": "int256"
        },
        {
          "internalType": "bool",
          "name": "isEvaluated",
          "type": "bool"
        },
        {
          "internalType": "bool",
          "name": "isPublished",
          "type": "bool"
        }
      ],
      "stateMutability": "view",
      "type": "function",
      "constant": true
    },
    {
      "inputs": [
        {
          "internalType": "address",
          "name": "journalistId",
          "type": "address"
        }
      ],
      "name": "getCredibility",
      "outputs": [
        {
          "internalType": "uint256",
          "name": "",
          "type": "uint256"
        }
      ],
      "stateMutability": "view",
      "type": "function",
      "constant": true
    },
    {
      "inputs": [],
      "name": "getAllArticles",
      "outputs": [
        {
          "components": [
            {
              "internalType": "uint256",
              "name": "id",
              "type": "uint256"
            },
            {
              "internalType": "string",
              "name": "filecoinCID",
              "type": "string"
            },
            {
              "internalType": "bool",
              "name": "isPublished",
              "type": "bool"
            },
            {
              "internalType": "bool",
              "name": "isEvaluated",
              "type": "bool"
            }
          ],
          "internalType": "struct ArticleContract.AllArticles[]",
          "name": "",
          "type": "tuple[]"
        }
      ],
      "stateMutability": "view",
      "type": "function",
      "constant": true
    }
  ],
  "bytecode": "0x60806040526040518060a00160405280739f1ce4b3392f849fa142c0b35932b140b0f4866373ffffffffffffffffffffffffffffffffffffffff1673ffffffffffffffffffffffffffffffffffffffff168152602001737eb5c634a059c2faa7a39adfaadce749a045686d73ffffffffffffffffffffffffffffffffffffffff1673ffffffffffffffffffffffffffffffffffffffff168152602001731c6af370b04d2979a92dfa4614059210af41191473ffffffffffffffffffffffffffffffffffffffff1673ffffffffffffffffffffffffffffffffffffffff1681526020017345096426d5ceb2bc2d9e8fb73f36f91bf5a877cb73ffffffffffffffffffffffffffffffffffffffff1673ffffffffffffffffffffffffffffffffffffffff16815260200173e72234a7a2289ad7b1c1c16004668e3e2d3f876d73ffffffffffffffffffffffffffffffffffffffff1673ffffffffffffffffffffffffffffffffffffffff1681525060009060056200017d92919062000198565b5061012c6006553480156200019157600080fd5b5062000239565b826005810192821562000207579160200282015b82811115620002065782518260006101000a81548173ffffffffffffffffffffffffffffffffffffffff021916908373ffffffffffffffffffffffffffffffffffffffff16021790555091602001919060010190620001ac565b5b5090506200021691906200021a565b5090565b5b80821115620002355760008160009055506001016200021b565b5090565b61374780620002496000396000f3fe608060405234801561001057600080fd5b50600436106101005760003560e01c80637d54f2a511610097578063d0e4b8f611610066578063d0e4b8f6146102c8578063dc3e7bc6146102fb578063e5e666b114610317578063edcfafe61461034757610100565b80637d54f2a5146102255780639256bab314610255578063b44d310b14610271578063bd85d8671461028f57610100565b8063414e28b0116100d3578063414e28b01461019f5780634f4b4845146101bd5780635790e9c4146101d9578063702331311461020957610100565b8063100832601461010557806314bfd6d014610121578063190e539e1461015157806324d7806c1461016f575b600080fd5b61011f600480360381019061011a9190612855565b610380565b005b61013b600480360381019061013691906127f0565b6109ca565b6040516101489190612edf565b60405180910390f35b610159610a00565b6040516101669190613124565b60405180910390f35b61018960048036038101906101849190612786565b610a06565b6040516101969190612f1c565b60405180910390f35b6101a7610ace565b6040516101b49190613124565b60405180910390f35b6101d760048036038101906101d29190612786565b610ad4565b005b6101f360048036038101906101ee9190612786565b610c46565b6040516102009190612f1c565b60405180910390f35b610223600480360381019061021e9190612786565b610c66565b005b61023f600480360381019061023a9190612786565b610e8e565b60405161024c9190613124565b60405180910390f35b61026f600480360381019061026a9190612819565b610ea6565b005b6102796113ac565b6040516102869190612efa565b60405180910390f35b6102a960048036038101906102a491906127f0565b6114dd565b6040516102bf9a999897969594939291906131e2565b60405180910390f35b6102e260048036038101906102dd91906127f0565b6116af565b6040516102f29493929190613285565b60405180910390f35b610315600480360381019061031091906127af565b611791565b005b610331600480360381019061032c9190612786565b611ad8565b60405161033e9190613124565b60405180910390f35b610361600480360381019061035c91906127f0565b611bad565b6040516103779a9998979695949392919061313f565b60405180910390f35b600960003373ffffffffffffffffffffffffffffffffffffffff1673ffffffffffffffffffffffffffffffffffffffff16815260200190815260200160002060009054906101000a900460ff1661040c576040517f08c379a000000000000000000000000000000000000000000000000000000000815260040161040390613024565b60405180910390fd5b82600760018261041c91906134a2565b81548110610453577f4e487b7100000000000000000000000000000000000000000000000000000000600052603260045260246000fd5b90600052602060002090600c020160020160009054906101000a900473ffffffffffffffffffffffffffffffffffffffff1673ffffffffffffffffffffffffffffffffffffffff163373ffffffffffffffffffffffffffffffffffffffff1614156104f3576040517f08c379a00000000000000000000000000000000000000000000000000000000081526004016104ea906130a4565b60405180910390fd5b6000600760018661050491906134a2565b8154811061053b577f4e487b7100000000000000000000000000000000000000000000000000000000600052603260045260246000fd5b90600052602060002090600c0201905080600a0160003373ffffffffffffffffffffffffffffffffffffffff1673ffffffffffffffffffffffffffffffffffffffff16815260200190815260200160002060000160009054906101000a900460ff16156105dd576040517f08c379a00000000000000000000000000000000000000000000000000000000081526004016105d490613064565b60405180910390fd5b8060080160019054906101000a900460ff161561062f576040517f08c379a000000000000000000000000000000000000000000000000000000000815260040161062690613084565b60405180910390fd5b604051806080016040528060011515815260200185151581526020013373ffffffffffffffffffffffffffffffffffffffff1681526020018481525081600a0160003373ffffffffffffffffffffffffffffffffffffffff1673ffffffffffffffffffffffffffffffffffffffff16815260200190815260200160002060008201518160000160006101000a81548160ff02191690831515021790555060208201518160000160016101000a81548160ff02191690831515021790555060408201518160000160026101000a81548173ffffffffffffffffffffffffffffffffffffffff021916908373ffffffffffffffffffffffffffffffffffffffff160217905550606082015181600101908051906020019061074f92919061263c565b5090505080600b01339080600181540180825580915050600190039060005260206000200160009091909190916101000a81548173ffffffffffffffffffffffffffffffffffffffff021916908373ffffffffffffffffffffffffffffffffffffffff16021790555060018160070160008282546107cd919061344c565b9250508190555083156108dd57600a60003373ffffffffffffffffffffffffffffffffffffffff1673ffffffffffffffffffffffffffffffffffffffff1681526020019081526020016000205481600601600082825461082d91906133b8565b925050819055506006548160060154126108d85760018160080160016101000a81548160ff0219169083151502179055506001600860018761086f91906134a2565b815481106108a6577f4e487b7100000000000000000000000000000000000000000000000000000000600052603260045260246000fd5b906000526020600020906003020160020160016101000a81548160ff0219169083151502179055506108d785611cd3565b5b610974565b60018160080160016101000a81548160ff0219169083151502179055506001600860018761090b91906134a2565b81548110610942577f4e487b7100000000000000000000000000000000000000000000000000000000600052603260045260246000fd5b906000526020600020906003020160020160016101000a81548160ff02191690831515021790555061097385611df8565b5b3373ffffffffffffffffffffffffffffffffffffffff16857f4d57c1327e8df7fff2257814bc639a07103cc1a005ec9894b0a699d87a86deec866040516109bb9190612f1c565b60405180910390a35050505050565b600081600581106109da57600080fd5b016000915054906101000a900473ffffffffffffffffffffffffffffffffffffffff1681565b60065481565b600080600090505b6005811015610ac3578273ffffffffffffffffffffffffffffffffffffffff1660008260058110610a68577f4e487b7100000000000000000000000000000000000000000000000000000000600052603260045260246000fd5b0160009054906101000a900473ffffffffffffffffffffffffffffffffffffffff1673ffffffffffffffffffffffffffffffffffffffff161415610ab0576001915050610ac9565b8080610abb9061359c565b915050610a0e565b50600090505b919050565b60055481565b610add33610a06565b610b1c576040517f08c379a0000000000000000000000000000000000000000000000000000000008152600401610b1390613044565b60405180910390fd5b600960008273ffffffffffffffffffffffffffffffffffffffff1673ffffffffffffffffffffffffffffffffffffffff16815260200190815260200160002060009054906101000a900460ff16610ba8576040517f08c379a0000000000000000000000000000000000000000000000000000000008152600401610b9f90612fe4565b60405180910390fd5b6000600960008373ffffffffffffffffffffffffffffffffffffffff1673ffffffffffffffffffffffffffffffffffffffff16815260200190815260200160002060006101000a81548160ff0219169083151502179055508073ffffffffffffffffffffffffffffffffffffffff167fefc0f4a3578c5dcfaff3fca3970cab1efb74cad47852628e32a1c998324644d960405160405180910390a250565b60096020528060005260406000206000915054906101000a900460ff1681565b610c6f33610a06565b610cae576040517f08c379a0000000000000000000000000000000000000000000000000000000008152600401610ca590613044565b60405180910390fd5b600073ffffffffffffffffffffffffffffffffffffffff168173ffffffffffffffffffffffffffffffffffffffff161415610d1e576040517f08c379a0000000000000000000000000000000000000000000000000000000008152600401610d1590612fc4565b60405180910390fd5b600960008273ffffffffffffffffffffffffffffffffffffffff1673ffffffffffffffffffffffffffffffffffffffff16815260200190815260200160002060009054906101000a900460ff1615610dab576040517f08c379a0000000000000000000000000000000000000000000000000000000008152600401610da290612fa4565b60405180910390fd5b6001600960008373ffffffffffffffffffffffffffffffffffffffff1673ffffffffffffffffffffffffffffffffffffffff16815260200190815260200160002060006101000a81548160ff0219169083151502179055506050600a60008373ffffffffffffffffffffffffffffffffffffffff1673ffffffffffffffffffffffffffffffffffffffff168152602001908152602001600020819055508073ffffffffffffffffffffffffffffffffffffffff167fe1007631d2c4e746b478ed3bdbb20f090176573599604f4f98b32d7a3679b7e360405160405180910390a250565b600a6020528060005260406000206000915090505481565b600960003373ffffffffffffffffffffffffffffffffffffffff1673ffffffffffffffffffffffffffffffffffffffff16815260200190815260200160002060009054906101000a900460ff16610f32576040517f08c379a0000000000000000000000000000000000000000000000000000000008152600401610f2990613024565b60405180910390fd5b816007600182610f4291906134a2565b81548110610f79577f4e487b7100000000000000000000000000000000000000000000000000000000600052603260045260246000fd5b90600052602060002090600c020160020160009054906101000a900473ffffffffffffffffffffffffffffffffffffffff1673ffffffffffffffffffffffffffffffffffffffff163373ffffffffffffffffffffffffffffffffffffffff161415611019576040517f08c379a0000000000000000000000000000000000000000000000000000000008152600401611010906130a4565b60405180910390fd5b6000600760018561102a91906134a2565b81548110611061577f4e487b7100000000000000000000000000000000000000000000000000000000600052603260045260246000fd5b90600052602060002090600c020190508060090160003373ffffffffffffffffffffffffffffffffffffffff1673ffffffffffffffffffffffffffffffffffffffff16815260200190815260200160002060000160009054906101000a900460ff1615611103576040517f08c379a00000000000000000000000000000000000000000000000000000000081526004016110fa90613104565b60405180910390fd5b80600a0160003373ffffffffffffffffffffffffffffffffffffffff1673ffffffffffffffffffffffffffffffffffffffff16815260200190815260200160002060000160009054906101000a900460ff1615611195576040517f08c379a000000000000000000000000000000000000000000000000000000000815260040161118c90613004565b60405180910390fd5b8060080160009054906101000a900460ff166111e6576040517f08c379a00000000000000000000000000000000000000000000000000000000081526004016111dd906130c4565b60405180910390fd5b604051806060016040528060011515815260200184151581526020013373ffffffffffffffffffffffffffffffffffffffff168152508160090160003373ffffffffffffffffffffffffffffffffffffffff1673ffffffffffffffffffffffffffffffffffffffff16815260200190815260200160002060008201518160000160006101000a81548160ff02191690831515021790555060208201518160000160016101000a81548160ff02191690831515021790555060408201518160000160026101000a81548173ffffffffffffffffffffffffffffffffffffffff021916908373ffffffffffffffffffffffffffffffffffffffff160217905550905050821561131b57600181600401600082825461130291906133b8565b925050819055506113168460056002611ea0565b611357565b600181600501600082825461133091906133b8565b92505081905550611356846005611346906135e5565b6002611351906135e5565b611ea0565b5b3373ffffffffffffffffffffffffffffffffffffffff16847f5aaa9aad7433112662b9e5ae23b96ed62b00035f413ab908c55607284e0804e28560405161139e9190612f1c565b60405180910390a350505050565b60606008805480602002602001604051908101604052809291908181526020016000905b828210156114d457838290600052602060002090600302016040518060800160405290816000820154815260200160018201805461140d9061356a565b80601f01602080910402602001604051908101604052809291908181526020018280546114399061356a565b80156114865780601f1061145b57610100808354040283529160200191611486565b820191906000526020600020905b81548152906001019060200180831161146957829003601f168201915b505050505081526020016002820160009054906101000a900460ff161515151581526020016002820160019054906101000a900460ff161515151581525050815260200190600101906113d0565b50505050905090565b6000606060008060008060008060008060008b1180156114ff57506005548b11155b61153e576040517f08c379a0000000000000000000000000000000000000000000000000000000008152600401611535906130e4565b60405180910390fd5b6000600760018d61154f91906134a2565b81548110611586577f4e487b7100000000000000000000000000000000000000000000000000000000600052603260045260246000fd5b90600052602060002090600c020190508060000154816001018260020160009054906101000a900473ffffffffffffffffffffffffffffffffffffffff16836003015484600601548560070154866004015487600501548860080160019054906101000a900460ff168960080160009054906101000a900460ff1688805461160d9061356a565b80601f01602080910402602001604051908101604052809291908181526020018280546116399061356a565b80156116865780601f1061165b57610100808354040283529160200191611686565b820191906000526020600020905b81548152906001019060200180831161166957829003601f168201915b505050505098509a509a509a509a509a509a509a509a509a509a50509193959799509193959799565b600881815481106116bf57600080fd5b90600052602060002090600302016000915090508060000154908060010180546116e89061356a565b80601f01602080910402602001604051908101604052809291908181526020018280546117149061356a565b80156117615780601f1061173657610100808354040283529160200191611761565b820191906000526020600020905b81548152906001019060200180831161174457829003601f168201915b5050505050908060020160009054906101000a900460ff16908060020160019054906101000a900460ff16905084565b600960003373ffffffffffffffffffffffffffffffffffffffff1673ffffffffffffffffffffffffffffffffffffffff16815260200190815260200160002060009054906101000a900460ff1661181d576040517f08c379a000000000000000000000000000000000000000000000000000000000815260040161181490613024565b60405180910390fd5b6000600a60003373ffffffffffffffffffffffffffffffffffffffff1673ffffffffffffffffffffffffffffffffffffffff168152602001908152602001600020549050600560008154809291906118749061359c565b91905055506007600181600181540180825580915050039060005260206000209050506000600760016007805490506118ad91906134a2565b815481106118e4577f4e487b7100000000000000000000000000000000000000000000000000000000600052603260045260246000fd5b90600052602060002090600c0201905060055481600001819055508281600101908051906020019061191792919061263c565b50338160020160006101000a81548173ffffffffffffffffffffffffffffffffffffffff021916908373ffffffffffffffffffffffffffffffffffffffff16021790555042816003018190555081816006018190555060008160070181905550600081600401819055506000816005018190555060008160080160016101000a81548160ff02191690831515021790555060008160080160006101000a81548160ff021916908315150217905550600860405180608001604052806005548152602001858152602001600015158152602001600015158152509080600181540180825580915050600190039060005260206000209060030201600090919091909150600082015181600001556020820151816001019080519060200190611a3f92919061263c565b5060408201518160020160006101000a81548160ff02191690831515021790555060608201518160020160016101000a81548160ff02191690831515021790555050503373ffffffffffffffffffffffffffffffffffffffff166005547ff1f54245b5a8c2080c72af655c4860205e6d4bc9298e1e1640cbdfc275b16aa085604051611acb9190612f82565b60405180910390a3505050565b6000600960008373ffffffffffffffffffffffffffffffffffffffff1673ffffffffffffffffffffffffffffffffffffffff16815260200190815260200160002060009054906101000a900460ff16611b66576040517f08c379a0000000000000000000000000000000000000000000000000000000008152600401611b5d90612fe4565b60405180910390fd5b600a60008373ffffffffffffffffffffffffffffffffffffffff1673ffffffffffffffffffffffffffffffffffffffff168152602001908152602001600020549050919050565b60078181548110611bbd57600080fd5b90600052602060002090600c0201600091509050806000015490806001018054611be69061356a565b80601f0160208091040260200160405190810160405280929190818152602001828054611c129061356a565b8015611c5f5780601f10611c3457610100808354040283529160200191611c5f565b820191906000526020600020905b815481529060010190602001808311611c4257829003601f168201915b5050505050908060020160009054906101000a900473ffffffffffffffffffffffffffffffffffffffff16908060030154908060040154908060050154908060060154908060070154908060080160009054906101000a900460ff16908060080160019054906101000a900460ff1690508a565b60006007600183611ce491906134a2565b81548110611d1b577f4e487b7100000000000000000000000000000000000000000000000000000000600052603260045260246000fd5b90600052602060002090600c0201905060018160080160006101000a81548160ff02191690831515021790555060016008600184611d5991906134a2565b81548110611d90577f4e487b7100000000000000000000000000000000000000000000000000000000600052603260045260246000fd5b906000526020600020906003020160020160006101000a81548160ff021916908315150217905550817f15d65db9834a5b5a9295fcb402b5f865c2a03e1afa2f11c6d94117430fbffffb8260060154604051611dec9190612f37565b60405180910390a25050565b60006007600183611e0991906134a2565b81548110611e40577f4e487b7100000000000000000000000000000000000000000000000000000000600052603260045260246000fd5b90600052602060002090600c020190506000611e5b83612476565b9050827fcc811d322d92c9343b3f0fb28451a21967430ea2da5b24a23c1cbc745336e7f5836006015483604051611e93929190612f52565b60405180910390a2505050565b60006007600185611eb191906134a2565b81548110611ee8577f4e487b7100000000000000000000000000000000000000000000000000000000600052603260045260246000fd5b90600052602060002090600c0201905060008160020160009054906101000a900473ffffffffffffffffffffffffffffffffffffffff16905083600a60008373ffffffffffffffffffffffffffffffffffffffff1673ffffffffffffffffffffffffffffffffffffffff16815260200190815260200160002054611f6c91906133b8565b600a60008373ffffffffffffffffffffffffffffffffffffffff1673ffffffffffffffffffffffffffffffffffffffff168152602001908152602001600020819055506064600a60008373ffffffffffffffffffffffffffffffffffffffff1673ffffffffffffffffffffffffffffffffffffffff168152602001908152602001600020541161203b57600a60008273ffffffffffffffffffffffffffffffffffffffff1673ffffffffffffffffffffffffffffffffffffffff1681526020019081526020016000205461203e565b60645b600a60008373ffffffffffffffffffffffffffffffffffffffff1673ffffffffffffffffffffffffffffffffffffffff168152602001908152602001600020819055506000600a60008373ffffffffffffffffffffffffffffffffffffffff1673ffffffffffffffffffffffffffffffffffffffff168152602001908152602001600020541061210d57600a60008273ffffffffffffffffffffffffffffffffffffffff1673ffffffffffffffffffffffffffffffffffffffff16815260200190815260200160002054612110565b60005b600a60008373ffffffffffffffffffffffffffffffffffffffff1673ffffffffffffffffffffffffffffffffffffffff1681526020019081526020016000208190555060005b82600b018054905081101561246e57600083600b0182815481106121a3577f4e487b7100000000000000000000000000000000000000000000000000000000600052603260045260246000fd5b9060005260206000200160009054906101000a900473ffffffffffffffffffffffffffffffffffffffff16905083600a0160008273ffffffffffffffffffffffffffffffffffffffff1673ffffffffffffffffffffffffffffffffffffffff16815260200190815260200160002060000160009054906101000a900460ff161561245a5784600a60008373ffffffffffffffffffffffffffffffffffffffff1673ffffffffffffffffffffffffffffffffffffffff1681526020019081526020016000205461227291906133b8565b600a60008373ffffffffffffffffffffffffffffffffffffffff1673ffffffffffffffffffffffffffffffffffffffff168152602001908152602001600020819055506064600a60008373ffffffffffffffffffffffffffffffffffffffff1673ffffffffffffffffffffffffffffffffffffffff168152602001908152602001600020541161234157600a60008273ffffffffffffffffffffffffffffffffffffffff1673ffffffffffffffffffffffffffffffffffffffff16815260200190815260200160002054612344565b60645b600a60008373ffffffffffffffffffffffffffffffffffffffff1673ffffffffffffffffffffffffffffffffffffffff168152602001908152602001600020819055506000600a60008373ffffffffffffffffffffffffffffffffffffffff1673ffffffffffffffffffffffffffffffffffffffff168152602001908152602001600020541061241357600a60008273ffffffffffffffffffffffffffffffffffffffff1673ffffffffffffffffffffffffffffffffffffffff16815260200190815260200160002054612416565b60005b600a60008373ffffffffffffffffffffffffffffffffffffffff1673ffffffffffffffffffffffffffffffffffffffff168152602001908152602001600020819055505b5080806124669061359c565b915050612156565b505050505050565b606060006040518060200160405280600081525090506000600760018561249d91906134a2565b815481106124d4577f4e487b7100000000000000000000000000000000000000000000000000000000600052603260045260246000fd5b90600052602060002090600c0201905060005b816007015481101561263157600082600b018281548110612531577f4e487b7100000000000000000000000000000000000000000000000000000000600052603260045260246000fd5b9060005260206000200160009054906101000a900473ffffffffffffffffffffffffffffffffffffffff16905082600a0160008273ffffffffffffffffffffffffffffffffffffffff1673ffffffffffffffffffffffffffffffffffffffff16815260200190815260200160002060000160009054906101000a900460ff161561261d578383600a0160008373ffffffffffffffffffffffffffffffffffffffff1673ffffffffffffffffffffffffffffffffffffffff16815260200190815260200160002060010160405160200161260b929190612eb0565b60405160208183030381529060405293505b5080806126299061359c565b9150506124e7565b508192505050919050565b8280546126489061356a565b90600052602060002090601f01602090048101928261266a57600085556126b1565b82601f1061268357805160ff19168380011785556126b1565b828001600101855582156126b1579182015b828111156126b0578251825591602001919060010190612695565b5b5090506126be91906126c2565b5090565b5b808211156126db5760008160009055506001016126c3565b5090565b60006126f26126ed84613302565b6132d1565b90508281526020810184848401111561270a57600080fd5b612715848285613528565b509392505050565b60008135905061272c816136cc565b92915050565b600081359050612741816136e3565b92915050565b600082601f83011261275857600080fd5b81356127688482602086016126df565b91505092915050565b600081359050612780816136fa565b92915050565b60006020828403121561279857600080fd5b60006127a68482850161271d565b91505092915050565b6000602082840312156127c157600080fd5b600082013567ffffffffffffffff8111156127db57600080fd5b6127e784828501612747565b91505092915050565b60006020828403121561280257600080fd5b600061281084828501612771565b91505092915050565b6000806040838503121561282c57600080fd5b600061283a85828601612771565b925050602061284b85828601612732565b9150509250929050565b60008060006060848603121561286a57600080fd5b600061287886828701612771565b935050602061288986828701612732565b925050604084013567ffffffffffffffff8111156128a657600080fd5b6128b286828701612747565b9150509250925092565b60006128c88383612e2f565b905092915050565b6128d9816134d6565b82525050565b60006128ea82613357565b6128f4818561337a565b93508360208202850161290685613332565b8060005b85811015612942578484038952815161292385826128bc565b945061292e8361336d565b925060208a0199505060018101905061290a565b50829750879550505050505092915050565b61295d816134e8565b82525050565b61296c816134e8565b82525050565b61297b816134f4565b82525050565b600061298c82613362565b612996818561338b565b93506129a6818560208601613537565b6129af816136bb565b840191505092915050565b60006129c582613362565b6129cf818561339c565b93506129df818560208601613537565b6129e8816136bb565b840191505092915050565b60006129fe82613362565b612a0881856133ad565b9350612a18818560208601613537565b80840191505092915050565b60008154612a318161356a565b612a3b81866133ad565b94506001821660008114612a565760018114612a6757612a9a565b60ff19831686528186019350612a9a565b612a7085613342565b60005b83811015612a9257815481890152600182019150602081019050612a73565b838801955050505b50505092915050565b6000612ab060188361339c565b91507f4a6f75726e616c69737420616c726561647920616464656400000000000000006000830152602082019050919050565b6000612af0600f8361339c565b91507f496e76616c6964206164647265737300000000000000000000000000000000006000830152602082019050919050565b6000612b3060148361339c565b91507f4a6f75726e616c697374206e6f7420666f756e640000000000000000000000006000830152602082019050919050565b6000612b7060158361339c565b91507f5265766965776572732063616e6e6f7420766f746500000000000000000000006000830152602082019050919050565b6000612bb060198361339c565b91507f4f6e6c79206a6f75726e616c697374732063616e20766f7465000000000000006000830152602082019050919050565b6000612bf06001836133ad565b91507f20000000000000000000000000000000000000000000000000000000000000006000830152600182019050919050565b6000612c3060238361339c565b91507f4f6e6c792061646d696e732063616e20706572666f726d20746869732061637460008301527f696f6e00000000000000000000000000000000000000000000000000000000006020830152604082019050919050565b6000612c9660198361339c565b91507f596f75206861766520616c7265616479207265766965776564000000000000006000830152602082019050919050565b6000612cd660198361339c565b91507f41727469636c6520616c7265616479206576616c7561746564000000000000006000830152602082019050919050565b6000612d1660118361339c565b91507f4f776e65722063616e6e6f7420766f74650000000000000000000000000000006000830152602082019050919050565b6000612d5660288361339c565b91507f41727469636c65206e6f7420796574206576616c7561746564206f722069732060008301527f72656a65637465640000000000000000000000000000000000000000000000006020830152604082019050919050565b6000612dbc60128361339c565b91507f496e76616c69642061727469636c6520494400000000000000000000000000006000830152602082019050919050565b6000612dfc60168361339c565b91507f596f75206861766520616c726561647920766f746564000000000000000000006000830152602082019050919050565b6000608083016000830151612e476000860182612e92565b5060208301518482036020860152612e5f8282612981565b9150506040830151612e746040860182612954565b506060830151612e876060860182612954565b508091505092915050565b612e9b8161351e565b82525050565b612eaa8161351e565b82525050565b6000612ebc82856129f3565b9150612ec88284612a24565b9150612ed382612be3565b91508190509392505050565b6000602082019050612ef460008301846128d0565b92915050565b60006020820190508181036000830152612f1481846128df565b905092915050565b6000602082019050612f316000830184612963565b92915050565b6000602082019050612f4c6000830184612972565b92915050565b6000604082019050612f676000830185612972565b8181036020830152612f7981846129ba565b90509392505050565b60006020820190508181036000830152612f9c81846129ba565b905092915050565b60006020820190508181036000830152612fbd81612aa3565b9050919050565b60006020820190508181036000830152612fdd81612ae3565b9050919050565b60006020820190508181036000830152612ffd81612b23565b9050919050565b6000602082019050818103600083015261301d81612b63565b9050919050565b6000602082019050818103600083015261303d81612ba3565b9050919050565b6000602082019050818103600083015261305d81612c23565b9050919050565b6000602082019050818103600083015261307d81612c89565b9050919050565b6000602082019050818103600083015261309d81612cc9565b9050919050565b600060208201905081810360008301526130bd81612d09565b9050919050565b600060208201905081810360008301526130dd81612d49565b9050919050565b600060208201905081810360008301526130fd81612daf565b9050919050565b6000602082019050818103600083015261311d81612def565b9050919050565b60006020820190506131396000830184612ea1565b92915050565b600061014082019050613155600083018d612ea1565b8181036020830152613167818c6129ba565b9050613176604083018b6128d0565b613183606083018a612ea1565b6131906080830189612972565b61319d60a0830188612972565b6131aa60c0830187612972565b6131b760e0830186612ea1565b6131c5610100830185612963565b6131d3610120830184612963565b9b9a5050505050505050505050565b6000610140820190506131f8600083018d612ea1565b818103602083015261320a818c6129ba565b9050613219604083018b6128d0565b613226606083018a612ea1565b6132336080830189612972565b61324060a0830188612ea1565b61324d60c0830187612972565b61325a60e0830186612972565b613268610100830185612963565b613276610120830184612963565b9b9a5050505050505050505050565b600060808201905061329a6000830187612ea1565b81810360208301526132ac81866129ba565b90506132bb6040830185612963565b6132c86060830184612963565b95945050505050565b6000604051905081810181811067ffffffffffffffff821117156132f8576132f761368c565b5b8060405250919050565b600067ffffffffffffffff82111561331d5761331c61368c565b5b601f19601f8301169050602081019050919050565b6000819050602082019050919050565b60008190508160005260206000209050919050565b600081519050919050565b600081519050919050565b6000602082019050919050565b600082825260208201905092915050565b600082825260208201905092915050565b600082825260208201905092915050565b600081905092915050565b60006133c3826134f4565b91506133ce836134f4565b9250817f7fffffffffffffffffffffffffffffffffffffffffffffffffffffffffffffff038313600083121516156134095761340861362e565b5b817f80000000000000000000000000000000000000000000000000000000000000000383126000831216156134415761344061362e565b5b828201905092915050565b60006134578261351e565b91506134628361351e565b9250827fffffffffffffffffffffffffffffffffffffffffffffffffffffffffffffffff038211156134975761349661362e565b5b828201905092915050565b60006134ad8261351e565b91506134b88361351e565b9250828210156134cb576134ca61362e565b5b828203905092915050565b60006134e1826134fe565b9050919050565b60008115159050919050565b6000819050919050565b600073ffffffffffffffffffffffffffffffffffffffff82169050919050565b6000819050919050565b82818337600083830152505050565b60005b8381101561355557808201518184015260208101905061353a565b83811115613564576000848401525b50505050565b6000600282049050600182168061358257607f821691505b602082108114156135965761359561365d565b5b50919050565b60006135a78261351e565b91507fffffffffffffffffffffffffffffffffffffffffffffffffffffffffffffffff8214156135da576135d961362e565b5b600182019050919050565b60006135f0826134f4565b91507f80000000000000000000000000000000000000000000000000000000000000008214156136235761362261362e565b5b816000039050919050565b7f4e487b7100000000000000000000000000000000000000000000000000000000600052601160045260246000fd5b7f4e487b7100000000000000000000000000000000000000000000000000000000600052602260045260246000fd5b7f4e487b7100000000000000000000000000000000000000000000000000000000600052604160045260246000fd5b6000601f19601f8301169050919050565b6136d5816134d6565b81146136e057600080fd5b50565b6136ec816134e8565b81146136f757600080fd5b50565b6137038161351e565b811461370e57600080fd5b5056fea26469706673582212202e8a2769100631e45c471ca3babd24ce48af5dc9df6cc75816283c4ebba64a5b64736f6c63430008000033",
  "immutableReferences": {},
  "source": "// SPDX-License-Identifier: MIT \npragma solidity ^0.8.0;\n\ncontract ArticleContract {\n    struct Voter {\n        bool    hasVoted;\n        bool    vote;\n        address userWalletId;\n    }\n\n    struct Evaluator {\n        bool    hasEvaluated;\n        bool    evaluationValue;\n        address userWalletId;\n        string  comments;\n    }\n\n    struct Article {\n        uint    id;\n        string  filecoinCID;\n        address journalistId;\n        uint    timeStamp;\n        int     upvotes;\n        int     downvotes;\n        int     reviewScore;\n        uint    reviewNumber;\n        bool    isPublished;\n        bool    isEvaluated;\n        mapping(address => Voter) voters;\n        mapping(address => Evaluator) reviewers;\n        address[] reviewersAddresses;\n    }\n\n    struct AllArticles {\n        uint    id;\n        string  filecoinCID;\n        bool    isPublished;\n        bool    isEvaluated;\n    }\n\n    address[5] public admins = [\n\taddress(0x9F1Ce4B3392f849fA142C0b35932b140B0F48663),\n\taddress(0x7eb5c634A059C2FaA7A39ADFaADce749A045686D),\n\taddress(0x1c6af370b04d2979a92DFa4614059210Af411914),\n\taddress(0x45096426d5CEb2bC2D9e8FB73f36F91Bf5A877CB),\n\taddress(0xE72234a7A2289ad7B1C1c16004668e3E2D3F876d)\n    ];\n\n    uint public articleCount;\n    uint public targetScore = 300;\n    int private constant ownerInfluence = 5;\n    int private constant reviewerInfluence = 2;\n\n    Article[] public articles;\n    AllArticles[] public allArticles;\n\n    mapping(address => bool) public journalistGroup;\n    mapping(address => uint) public credibilityScores;\n\n    event JournalistAdded(address indexed journalist);\n    event JournalistDeactivated(address indexed journalist);\n    event ArticleCreated(uint256 indexed articleId, string filecoinCID, address indexed journalistId);\n    event ReviewCasted(uint256 indexed articleId, address indexed reviewer, bool review);\n    event VoteCasted(uint256 indexed articleId, address indexed voter, bool vote);\n    event ArticleDeployed(uint256 indexed articleId, int totalReviewScore);\n    event ArticleDenied(uint256 indexed articleId, int totalReviewScore, string comments);\n\n    modifier notOwner(uint256 articleId) {\n        require(msg.sender != articles[articleId - 1].journalistId, \"Owner cannot vote\");\n        _;\n    }\n\n    modifier onlyJournalist() {\n        require(journalistGroup[msg.sender], \"Only journalists can vote\");\n        _;\n    }\n\n    modifier onlyAdmin() {\n        require(isAdmin(msg.sender), \"Only admins can perform this action\");\n        _;\n    }\n\n    function isAdmin(address user) public view returns (bool) {\n        for (uint i = 0; i < admins.length; i++) {\n            if (admins[i] == user) {\n                return true;\n            }\n        }\n        return false;\n    }\n\n    function addJournalist(address journalist) public onlyAdmin {\n        require(journalist != address(0), \"Invalid address\");\n        require(!journalistGroup[journalist], \"Journalist already added\");\n        journalistGroup[journalist] = true;\n        credibilityScores[journalist] = 80;\n        emit JournalistAdded(journalist);\n    }\n\n    function deactivateJournalist(address journalist) public onlyAdmin {\n        require(journalistGroup[journalist], \"Journalist not found\");\n        journalistGroup[journalist] = false;\n        emit JournalistDeactivated(journalist);\n    }\n\n    function createArticle(string memory _filecoinCID) external onlyJournalist {\n        uint credibilityOfOwner = credibilityScores[msg.sender];\n        articleCount++;\n\n        articles.push();\n        Article storage newArticle = articles[articles.length - 1];\n        newArticle.id = articleCount;\n        newArticle.filecoinCID = _filecoinCID;\n        newArticle.journalistId = msg.sender;\n        newArticle.timeStamp = block.timestamp;\n        newArticle.reviewScore = int(credibilityOfOwner);\n        newArticle.reviewNumber = 0;\n        newArticle.upvotes = 0;\n        newArticle.downvotes = 0;\n        newArticle.isEvaluated = false;\n        newArticle.isPublished = false;\n\n        allArticles.push(AllArticles({\n            id: articleCount,\n            filecoinCID: _filecoinCID,\n            isPublished: false,\n            isEvaluated: false\n        }));\n\n        emit ArticleCreated(articleCount, _filecoinCID, msg.sender);\n    }\n\n    function evaluateArticle(uint articleId, bool approve, string memory comment) public onlyJournalist notOwner(articleId) {\n        Article storage article = articles[articleId - 1];\n        require(!article.reviewers[msg.sender].hasEvaluated, \"You have already reviewed\");\n        require(!article.isEvaluated, \"Article already evaluated\");\n\n        article.reviewers[msg.sender] = Evaluator({\n            hasEvaluated: true,\n            evaluationValue: approve,\n            userWalletId: msg.sender,\n            comments: comment\n        });\n\n        article.reviewersAddresses.push(msg.sender);\n        article.reviewNumber += 1;\n\n        if (approve) {\n            article.reviewScore += int(credibilityScores[msg.sender]);\n            if (article.reviewScore >= int(targetScore)) {\n                article.isEvaluated = true;\n                allArticles[articleId - 1].isEvaluated = true;\n                deployArticle(articleId);\n            }\n        } else {\n            article.isEvaluated = true;\n            allArticles[articleId - 1].isEvaluated = true;\n            denyArticle(articleId);\n        }\n\n        emit ReviewCasted(articleId, msg.sender, approve);\n    }\n\n    function voteArticle(uint articleId, bool vote) public onlyJournalist notOwner(articleId) {\n        Article storage article = articles[articleId - 1];\n        require(!article.voters[msg.sender].hasVoted, \"You have already voted\");\n        require(!article.reviewers[msg.sender].hasEvaluated, \"Reviewers cannot vote\");\n        require(article.isPublished, \"Article not yet evaluated or is rejected\");\n\n        article.voters[msg.sender] = Voter({\n            hasVoted: true,\n            vote: vote,\n            userWalletId: msg.sender\n        });\n\n        if (vote) {\n            article.upvotes += 1;\n            updateCredibility(articleId, ownerInfluence, reviewerInfluence);\n        } else {\n            article.downvotes += 1;\n            updateCredibility(articleId, -ownerInfluence, -reviewerInfluence);\n        }\n\n        emit VoteCasted(articleId, msg.sender, vote);\n    }\n\n    function deployArticle(uint articleId) internal {\n        Article storage article = articles[articleId - 1];\n        article.isPublished = true;\n        allArticles[articleId - 1].isPublished = true;\n        emit ArticleDeployed(articleId, article.reviewScore);\n    }\n\n    function denyArticle(uint articleId) internal {\n        Article storage article = articles[articleId - 1];\n        string memory comments = gatherComments(articleId);\n        emit ArticleDenied(articleId, article.reviewScore, comments);\n    }\n\n    function gatherComments(uint articleId) internal view returns (string memory) {\n        string memory allComments = \"\";\n        Article storage article = articles[articleId - 1];\n        for (uint i = 0; i < article.reviewNumber; i++) {\n            address reviewerAddress = article.reviewersAddresses[i];\n            if (article.reviewers[reviewerAddress].hasEvaluated) {\n                allComments = string(abi.encodePacked(allComments, article.reviewers[reviewerAddress].comments, \" \"));\n            }\n        }\n        return allComments;\n    }\n\n    function getArticle(uint256 articleId) public view returns (\n        uint256 id, \n        string memory filecoinCID, \n        address journalistId, \n        uint256 timeStamp,\n        int reviewScore,\n        uint reviewNumber,\n        int upvotes,\n        int downvotes,\n        bool isEvaluated,\n        bool isPublished\n    ) {\n        require(articleId > 0 && articleId <= articleCount, \"Invalid article ID\");\n        Article storage article = articles[articleId - 1];\n        \n        return (\n            article.id, \n            article.filecoinCID, \n            article.journalistId, \n            article.timeStamp, \n            article.reviewScore, \n            article.reviewNumber, \n            article.upvotes, \n            article.downvotes,\n            article.isEvaluated,\n            article.isPublished\n        );\n    }\n\n    function updateCredibility(uint articleId, int ownerInfluenceValue, int reviewerInfluenceValue) internal {\n        Article storage article = articles[articleId - 1];\n        address owner = article.journalistId;\n        credibilityScores[owner] = uint(int(credibilityScores[owner]) + ownerInfluenceValue);\n        credibilityScores[owner] = credibilityScores[owner] > 100 ? 100 : credibilityScores[owner];\n        credibilityScores[owner] = credibilityScores[owner] < 0 ? 0 : credibilityScores[owner];\n\n        for (uint i = 0; i < article.reviewersAddresses.length; i++) {\n            address reviewerAddress = article.reviewersAddresses[i];\n            if (article.reviewers[reviewerAddress].hasEvaluated) {\n                credibilityScores[reviewerAddress] = uint(int(credibilityScores[reviewerAddress]) + reviewerInfluenceValue);\n                credibilityScores[reviewerAddress] = credibilityScores[reviewerAddress] > 100 ? 100 : credibilityScores[reviewerAddress];\n                credibilityScores[reviewerAddress] = credibilityScores[reviewerAddress] < 0 ? 0 : credibilityScores[reviewerAddress];\n            }\n        }\n    }\n\n    function getCredibility(address journalistId) public view returns (uint) {\n        require(journalistGroup[journalistId], \"Journalist not found\");\n        return credibilityScores[journalistId];\n    }\n\n    function getAllArticles() public view returns (AllArticles[] memory) {\n        return allArticles;\n    }\n}\n",
  "sourcePath": "/home/konstantinos/Desktop/repo/contract_deployment/contracts/ArticleContract.sol",
  "compiler": {
    "name": "solc",
    "version": "0.8.0+commit.c7dfd78e.Emscripten.clang"
  },
  "schemaVersion": "3.4.16",
  "updatedAt": "2024-07-13T12:26:16.846Z",
  "networkType": "ethereum",
  "devdoc": {
    "kind": "dev",
    "methods": {},
    "version": 1
  },
  "userdoc": {
    "kind": "user",
    "methods": {},
    "version": 1
  }
}